{
  "_format": "hh-sol-artifact-1",
  "contractName": "InsiderAnalytics",
  "sourceName": "contracts/InsiderAnalytics.sol",
  "abi": [
    {
      "inputs": [
        {
          "internalType": "address",
          "name": "initialOwner",
          "type": "address"
        }
      ],
      "stateMutability": "nonpayable",
      "type": "constructor"
    },
    {
      "inputs": [
        {
          "internalType": "address",
          "name": "owner",
          "type": "address"
        }
      ],
      "name": "OwnableInvalidOwner",
      "type": "error"
    },
    {
      "inputs": [
        {
          "internalType": "address",
          "name": "account",
          "type": "address"
        }
      ],
      "name": "OwnableUnauthorizedAccount",
      "type": "error"
    },
    {
      "inputs": [],
      "name": "ReentrancyGuardReentrantCall",
      "type": "error"
    },
    {
      "anonymous": false,
      "inputs": [
        {
          "indexed": true,
          "internalType": "address",
          "name": "wallet",
          "type": "address"
        },
        {
          "indexed": false,
          "internalType": "string",
          "name": "alertType",
          "type": "string"
        },
        {
          "indexed": false,
          "internalType": "uint256",
          "name": "threshold",
          "type": "uint256"
        },
        {
          "indexed": false,
          "internalType": "uint256",
          "name": "actualValue",
          "type": "uint256"
        }
      ],
      "name": "AlertTriggered",
      "type": "event"
    },
    {
      "anonymous": false,
      "inputs": [
        {
          "indexed": true,
          "internalType": "address",
          "name": "wallet",
          "type": "address"
        },
        {
          "indexed": false,
          "internalType": "string",
          "name": "anomalyType",
          "type": "string"
        },
        {
          "indexed": false,
          "internalType": "uint256",
          "name": "severity",
          "type": "uint256"
        },
        {
          "indexed": false,
          "internalType": "uint256",
          "name": "timestamp",
          "type": "uint256"
        }
      ],
      "name": "AnomalyDetected",
      "type": "event"
    },
    {
      "anonymous": false,
      "inputs": [
        {
          "indexed": true,
          "internalType": "address",
          "name": "previousOwner",
          "type": "address"
        },
        {
          "indexed": true,
          "internalType": "address",
          "name": "newOwner",
          "type": "address"
        }
      ],
      "name": "OwnershipTransferred",
      "type": "event"
    },
    {
      "anonymous": false,
      "inputs": [
        {
          "indexed": true,
          "internalType": "address",
          "name": "wallet",
          "type": "address"
        },
        {
          "indexed": false,
          "internalType": "uint256",
          "name": "oldScore",
          "type": "uint256"
        },
        {
          "indexed": false,
          "internalType": "uint256",
          "name": "newScore",
          "type": "uint256"
        }
      ],
      "name": "RiskScoreUpdated",
      "type": "event"
    },
    {
      "anonymous": false,
      "inputs": [
        {
          "indexed": true,
          "internalType": "address",
          "name": "token",
          "type": "address"
        },
        {
          "indexed": false,
          "internalType": "uint256",
          "name": "unlockTime",
          "type": "uint256"
        },
        {
          "indexed": false,
          "internalType": "uint256",
          "name": "amount",
          "type": "uint256"
        }
      ],
      "name": "TokenUnlockScheduled",
      "type": "event"
    },
    {
      "anonymous": false,
      "inputs": [
        {
          "indexed": true,
          "internalType": "address",
          "name": "wallet",
          "type": "address"
        },
        {
          "indexed": false,
          "internalType": "uint256",
          "name": "timestamp",
          "type": "uint256"
        }
      ],
      "name": "WalletRegistered",
      "type": "event"
    },
    {
      "inputs": [],
      "name": "HIGH_RISK_THRESHOLD",
      "outputs": [
        {
          "internalType": "uint256",
          "name": "",
          "type": "uint256"
        }
      ],
      "stateMutability": "view",
      "type": "function"
    },
    {
      "inputs": [],
      "name": "WHALE_THRESHOLD",
      "outputs": [
        {
          "internalType": "uint256",
          "name": "",
          "type": "uint256"
        }
      ],
      "stateMutability": "view",
      "type": "function"
    },
    {
      "inputs": [
        {
          "internalType": "address",
          "name": "analyzer",
          "type": "address"
        }
      ],
      "name": "addAuthorizedAnalyzer",
      "outputs": [],
      "stateMutability": "nonpayable",
      "type": "function"
    },
    {
      "inputs": [
        {
          "internalType": "address",
          "name": "",
          "type": "address"
        }
      ],
      "name": "authorizedAnalyzers",
      "outputs": [
        {
          "internalType": "bool",
          "name": "",
          "type": "bool"
        }
      ],
      "stateMutability": "view",
      "type": "function"
    },
    {
      "inputs": [],
      "name": "getContractStats",
      "outputs": [
        {
          "internalType": "uint256",
          "name": "totalWallets",
          "type": "uint256"
        },
        {
          "internalType": "uint256",
          "name": "totalUnlocks",
          "type": "uint256"
        },
        {
          "internalType": "uint256",
          "name": "totalAnomalies",
          "type": "uint256"
        }
      ],
      "stateMutability": "view",
      "type": "function"
    },
    {
      "inputs": [
        {
          "internalType": "uint256",
          "name": "timeframe",
          "type": "uint256"
        }
      ],
      "name": "getUpcomingUnlocks",
      "outputs": [
        {
          "components": [
            {
              "internalType": "address",
              "name": "token",
              "type": "address"
            },
            {
              "internalType": "uint256",
              "name": "unlockTime",
              "type": "uint256"
            },
            {
              "internalType": "uint256",
              "name": "amount",
              "type": "uint256"
            },
            {
              "internalType": "address",
              "name": "beneficiary",
              "type": "address"
            },
            {
              "internalType": "bool",
              "name": "isExecuted",
              "type": "bool"
            },
            {
              "internalType": "uint256",
              "name": "impactScore",
              "type": "uint256"
            }
          ],
          "internalType": "struct InsiderAnalytics.TokenUnlock[]",
          "name": "",
          "type": "tuple[]"
        }
      ],
      "stateMutability": "view",
      "type": "function"
    },
    {
      "inputs": [
        {
          "internalType": "address",
          "name": "wallet",
          "type": "address"
        }
      ],
      "name": "getWalletAnomalies",
      "outputs": [
        {
          "components": [
            {
              "internalType": "string",
              "name": "anomalyType",
              "type": "string"
            },
            {
              "internalType": "uint256",
              "name": "severity",
              "type": "uint256"
            },
            {
              "internalType": "uint256",
              "name": "timestamp",
              "type": "uint256"
            },
            {
              "internalType": "bool",
              "name": "isResolved",
              "type": "bool"
            },
            {
              "internalType": "string",
              "name": "metadata",
              "type": "string"
            }
          ],
          "internalType": "struct InsiderAnalytics.AnomalyAlert[]",
          "name": "",
          "type": "tuple[]"
        }
      ],
      "stateMutability": "view",
      "type": "function"
    },
    {
      "inputs": [
        {
          "internalType": "address",
          "name": "wallet",
          "type": "address"
        }
      ],
      "name": "getWalletRisk",
      "outputs": [
        {
          "internalType": "uint256",
          "name": "riskScore",
          "type": "uint256"
        },
        {
          "internalType": "bool",
          "name": "isHighRisk",
          "type": "bool"
        },
        {
          "internalType": "bool",
          "name": "isWhale",
          "type": "bool"
        },
        {
          "internalType": "uint256",
          "name": "anomalyCount",
          "type": "uint256"
        }
      ],
      "stateMutability": "view",
      "type": "function"
    },
    {
      "inputs": [],
      "name": "nextUnlockId",
      "outputs": [
        {
          "internalType": "uint256",
          "name": "",
          "type": "uint256"
        }
      ],
      "stateMutability": "view",
      "type": "function"
    },
    {
      "inputs": [],
      "name": "owner",
      "outputs": [
        {
          "internalType": "address",
          "name": "",
          "type": "address"
        }
      ],
      "stateMutability": "view",
      "type": "function"
    },
    {
      "inputs": [
        {
          "internalType": "address",
          "name": "wallet",
          "type": "address"
        },
        {
          "internalType": "string",
          "name": "anomalyType",
          "type": "string"
        },
        {
          "internalType": "uint256",
          "name": "severity",
          "type": "uint256"
        },
        {
          "internalType": "string",
          "name": "metadata",
          "type": "string"
        }
      ],
      "name": "recordAnomaly",
      "outputs": [],
      "stateMutability": "nonpayable",
      "type": "function"
    },
    {
      "inputs": [
        {
          "internalType": "address",
          "name": "wallet",
          "type": "address"
        }
      ],
      "name": "registerWallet",
      "outputs": [],
      "stateMutability": "nonpayable",
      "type": "function"
    },
    {
      "inputs": [
        {
          "internalType": "address",
          "name": "analyzer",
          "type": "address"
        }
      ],
      "name": "removeAuthorizedAnalyzer",
      "outputs": [],
      "stateMutability": "nonpayable",
      "type": "function"
    },
    {
      "inputs": [],
      "name": "renounceOwnership",
      "outputs": [],
      "stateMutability": "nonpayable",
      "type": "function"
    },
    {
      "inputs": [
        {
          "internalType": "address",
          "name": "wallet",
          "type": "address"
        },
        {
          "internalType": "uint256",
          "name": "anomalyIndex",
          "type": "uint256"
        }
      ],
      "name": "resolveAnomaly",
      "outputs": [],
      "stateMutability": "nonpayable",
      "type": "function"
    },
    {
      "inputs": [
        {
          "internalType": "address",
          "name": "token",
          "type": "address"
        },
        {
          "internalType": "uint256",
          "name": "unlockTime",
          "type": "uint256"
        },
        {
          "internalType": "uint256",
          "name": "amount",
          "type": "uint256"
        },
        {
          "internalType": "address",
          "name": "beneficiary",
          "type": "address"
        },
        {
          "internalType": "uint256",
          "name": "impactScore",
          "type": "uint256"
        }
      ],
      "name": "scheduleTokenUnlock",
      "outputs": [],
      "stateMutability": "nonpayable",
      "type": "function"
    },
    {
      "inputs": [
        {
          "internalType": "uint256",
          "name": "",
          "type": "uint256"
        }
      ],
      "name": "tokenUnlocks",
      "outputs": [
        {
          "internalType": "address",
          "name": "token",
          "type": "address"
        },
        {
          "internalType": "uint256",
          "name": "unlockTime",
          "type": "uint256"
        },
        {
          "internalType": "uint256",
          "name": "amount",
          "type": "uint256"
        },
        {
          "internalType": "address",
          "name": "beneficiary",
          "type": "address"
        },
        {
          "internalType": "bool",
          "name": "isExecuted",
          "type": "bool"
        },
        {
          "internalType": "uint256",
          "name": "impactScore",
          "type": "uint256"
        }
      ],
      "stateMutability": "view",
      "type": "function"
    },
    {
      "inputs": [
        {
          "internalType": "address",
          "name": "newOwner",
          "type": "address"
        }
      ],
      "name": "transferOwnership",
      "outputs": [],
      "stateMutability": "nonpayable",
      "type": "function"
    },
    {
      "inputs": [
        {
          "internalType": "address",
          "name": "wallet",
          "type": "address"
        },
        {
          "internalType": "uint256",
          "name": "newScore",
          "type": "uint256"
        }
      ],
      "name": "updateRiskScore",
      "outputs": [],
      "stateMutability": "nonpayable",
      "type": "function"
    },
    {
      "inputs": [
        {
          "internalType": "address",
          "name": "wallet",
          "type": "address"
        },
        {
          "internalType": "uint256",
          "name": "transactionCount",
          "type": "uint256"
        },
        {
          "internalType": "uint256",
          "name": "defiInteractions",
          "type": "uint256"
        }
      ],
      "name": "updateWalletMetrics",
      "outputs": [],
      "stateMutability": "nonpayable",
      "type": "function"
    },
    {
      "inputs": [
        {
          "internalType": "address",
          "name": "wallet",
          "type": "address"
        },
        {
          "internalType": "bool",
          "name": "isWhale",
          "type": "bool"
        }
      ],
      "name": "updateWhaleStatus",
      "outputs": [],
      "stateMutability": "nonpayable",
      "type": "function"
    },
    {
      "inputs": [
        {
          "internalType": "address",
          "name": "",
          "type": "address"
        },
        {
          "internalType": "uint256",
          "name": "",
          "type": "uint256"
        }
      ],
      "name": "walletAnomalies",
      "outputs": [
        {
          "internalType": "string",
          "name": "anomalyType",
          "type": "string"
        },
        {
          "internalType": "uint256",
          "name": "severity",
          "type": "uint256"
        },
        {
          "internalType": "uint256",
          "name": "timestamp",
          "type": "uint256"
        },
        {
          "internalType": "bool",
          "name": "isResolved",
          "type": "bool"
        },
        {
          "internalType": "string",
          "name": "metadata",
          "type": "string"
        }
      ],
      "stateMutability": "view",
      "type": "function"
    },
    {
      "inputs": [
        {
          "internalType": "address",
          "name": "",
          "type": "address"
        }
      ],
      "name": "walletProfiles",
      "outputs": [
        {
          "internalType": "bool",
          "name": "isRegistered",
          "type": "bool"
        },
        {
          "internalType": "uint256",
          "name": "riskScore",
          "type": "uint256"
        },
        {
          "internalType": "uint256",
          "name": "totalTransactions",
          "type": "uint256"
        },
        {
          "internalType": "uint256",
          "name": "lastActivity",
          "type": "uint256"
        },
        {
          "internalType": "uint256",
          "name": "defiInteractions",
          "type": "uint256"
        },
        {
          "internalType": "bool",
          "name": "isWhale",
          "type": "bool"
        }
      ],
      "stateMutability": "view",
      "type": "function"
    }
  ],
  "bytecode": "0x60806040523480156200001157600080fd5b5060405162001c7438038062001c748339810160408190526200003491620000e6565b806001600160a01b0381166200006457604051631e4fbdf760e01b81526000600482015260240160405180910390fd5b6200006f8162000096565b50506001808055336000908152600560205260409020805460ff1916909117905562000118565b600080546001600160a01b038381166001600160a01b0319831681178455604051919092169283917f8be0079c531659141344cd1fd0a4f28419497f9722a3daafe3b4186f6b6457e09190a35050565b600060208284031215620000f957600080fd5b81516001600160a01b03811681146200011157600080fd5b9392505050565b611b4c80620001286000396000f3fe608060405234801561001057600080fd5b506004361061014d5760003560e01c80639dcbd55c116100c3578063dcb817ce1161007c578063dcb817ce1461034a578063dfe6b5d6146103de578063ea80027a14610400578063ef37098114610473578063f2fde38b14610486578063f47790d61461049957600080fd5b80639dcbd55c146102c85780639ff1192d146102d1578063a3b38d57146102e4578063a8d69363146102f7578063aa124f4d1461030a578063aeca51ca1461032a57600080fd5b8063524e354d11610115578063524e354d146101ed578063715018a61461020457806376327bef1461020c578063779beedf1461021f5780638da5cb5b146102325780638e71fc031461024d57600080fd5b80630808715914610152578063278391fa1461017f5780634033529c146101945780634ad592f9146101a75780634e8bfb20146101da575b600080fd5b61016561016036600461149e565b6104aa565b60405161017695949392919061150e565b60405180910390f35b61019261018d366004611553565b610616565b005b6101926101a2366004611629565b6106f7565b6101ca6101b53660046116a7565b60056020526000908152604090205460ff1681565b6040519015158152602001610176565b6101926101e836600461149e565b610918565b6101f660065481565b604051908152602001610176565b610192610a0f565b61019261021a3660046116c9565b610a23565b61019261022d3660046116a7565b610c4f565b6000546040516001600160a01b039091168152602001610176565b61029761025b3660046116a7565b600260208190526000918252604090912080546001820154928201546003830154600484015460059094015460ff938416959492939192911686565b60408051961515875260208701959095529385019290925260608401526080830152151560a082015260c001610176565b6101f66102bc81565b6101926102df36600461149e565b610d53565b6101926102f23660046116a7565b610eab565b610192610305366004611717565b610ed7565b61031d610318366004611753565b610fa9565b604051610176919061176c565b61033d6103383660046116a7565b6111de565b60405161017691906117f4565b6103a0610358366004611753565b6003602081905260009182526040909120805460018201546002830154938301546004909301546001600160a01b039283169491939192821691600160a01b900460ff169086565b604080516001600160a01b039788168152602081019690965285019390935293166060830152911515608082015260a081019190915260c001610176565b6006546000908160408051938452602084019290925290820152606001610176565b61044d61040e3660046116a7565b6001600160a01b031660009081526002602090815260408083206001810154600590910154600490935292205491926102bc8410159260ff9092169190565b604080519485529215156020850152901515918301919091526060820152608001610176565b6101926104813660046116a7565b61139e565b6101926104943660046116a7565b6113c7565b6101f669d3c21bcecceda100000081565b600460205281600052604060002081815481106104c657600080fd5b9060005260206000209060050201600091509150508060000180546104ea9061189d565b80601f01602080910402602001604051908101604052809291908181526020018280546105169061189d565b80156105635780601f1061053857610100808354040283529160200191610563565b820191906000526020600020905b81548152906001019060200180831161054657829003601f168201915b5050506001840154600285015460038601546004870180549697939692955060ff9091169350906105939061189d565b80601f01602080910402602001604051908101604052809291908181526020018280546105bf9061189d565b801561060c5780601f106105e15761010080835404028352916020019161060c565b820191906000526020600020905b8154815290600101906020018083116105ef57829003601f168201915b5050505050905085565b3360009081526005602052604090205460ff168061063e57506000546001600160a01b031633145b6106635760405162461bcd60e51b815260040161065a906118d7565b60405180910390fd5b826001600160a01b03811661068a5760405162461bcd60e51b815260040161065a9061190e565b6001600160a01b03841660009081526002602052604090205460ff166106c25760405162461bcd60e51b815260040161065a9061193e565b506001600160a01b03909216600090815260026020819052604090912090810191909155600481019190915542600390910155565b3360009081526005602052604090205460ff168061071f57506000546001600160a01b031633145b61073b5760405162461bcd60e51b815260040161065a906118d7565b836001600160a01b0381166107625760405162461bcd60e51b815260040161065a9061190e565b60018310158015610774575060058311155b6107b95760405162461bcd60e51b8152602060048201526016602482015275125b9d985b1a59081cd95d995c9a5d1e481b195d995b60521b604482015260640161065a565b6040805160a08101825285815260208082018690524282840152600060608301819052608083018690526001600160a01b03891681526004825292832080546001810182559084529220815191928392600590910290910190819061081e90826119bc565b506020820151600182015560408201516002820155606082015160038201805460ff19169115159190911790556080820151600482019061085f90826119bc565b505050600484106108cb576001600160a01b03861660009081526002602052604081206001015490610892866032611a92565b61089c9083611aaf565b90506103e88111156108ad57506103e85b6001600160a01b038816600090815260026020526040902060010155505b856001600160a01b03167fed21f7063c68034ab6b00408d6acee34c1dbbec2d7268b6ef9f7966027af197e86864260405161090893929190611ac2565b60405180910390a2505050505050565b3360009081526005602052604090205460ff168061094057506000546001600160a01b031633145b61095c5760405162461bcd60e51b815260040161065a906118d7565b6001600160a01b03821660009081526004602052604090205481106109bb5760405162461bcd60e51b8152602060048201526015602482015274092dcecc2d8d2c840c2dcdedac2d8f240d2dcc8caf605b1b604482015260640161065a565b6001600160a01b0382166000908152600460205260409020805460019190839081106109e9576109e9611ae7565b60009182526020909120600590910201600301805460ff19169115159190911790555050565b610a17611405565b610a216000611432565b565b3360009081526005602052604090205460ff1680610a4b57506000546001600160a01b031633145b610a675760405162461bcd60e51b815260040161065a906118d7565b428411610ab65760405162461bcd60e51b815260206004820152601d60248201527f556e6c6f636b2074696d65206d75737420626520696e20667574757265000000604482015260640161065a565b60008311610b065760405162461bcd60e51b815260206004820152601d60248201527f416d6f756e74206d7573742062652067726561746572207468616e2030000000604482015260640161065a565b6103e8811115610b585760405162461bcd60e51b815260206004820152601c60248201527f496d706163742073636f7265206d757374206265203c3d203130303000000000604482015260640161065a565b6040805160c0810182526001600160a01b0387811680835260208084018981528486018981528885166060870190815260006080880181815260a089018b815260065483526003808852928b902099518a54908a166001600160a01b0319909116178a55945160018a0155925160028901559051908701805492511515600160a01b026001600160a81b03199093169190961617179093559151600490930192909255825187815290810186905290917f3bd7d5b6b3da9a7fd0a3fe7118231c552b6ac8c8533c5b21ed25ea48853a5d00910160405180910390a260068054906000610c4383611afd565b91905055505050505050565b806001600160a01b038116610c765760405162461bcd60e51b815260040161065a9061190e565b6001600160a01b03821660009081526002602052604090205460ff1615610cdf5760405162461bcd60e51b815260206004820152601960248201527f57616c6c657420616c7265616479207265676973746572656400000000000000604482015260640161065a565b6001600160a01b03821660008181526002602052604090819020805460ff1916600190811782556101f49082015542600390910181905590517f5b67f804e323419e52b5705600ce2a2921abc81f923b72e1d53b0b1cda8eedd391610d479190815260200190565b60405180910390a25050565b3360009081526005602052604090205460ff1680610d7b57506000546001600160a01b031633145b610d975760405162461bcd60e51b815260040161065a906118d7565b816001600160a01b038116610dbe5760405162461bcd60e51b815260040161065a9061190e565b6103e8821115610e105760405162461bcd60e51b815260206004820152601a60248201527f5269736b2073636f7265206d757374206265203c3d2031303030000000000000604482015260640161065a565b6001600160a01b03831660009081526002602052604090205460ff16610e485760405162461bcd60e51b815260040161065a9061193e565b6001600160a01b038316600081815260026020908152604091829020600101805490869055825181815291820186905292917fc474203c9bd971af57d9ec643f33cebaa494c998ad440ab70e919e66905f534b910160405180910390a250505050565b610eb3611405565b6001600160a01b03166000908152600560205260409020805460ff19166001179055565b3360009081526005602052604090205460ff1680610eff57506000546001600160a01b031633145b610f1b5760405162461bcd60e51b815260040161065a906118d7565b816001600160a01b038116610f425760405162461bcd60e51b815260040161065a9061190e565b6001600160a01b03831660009081526002602052604090205460ff16610f7a5760405162461bcd60e51b815260040161065a9061193e565b506001600160a01b03919091166000908152600260205260409020600501805460ff1916911515919091179055565b6060600080610fb88442611aaf565b905060005b6006548110156110435760008181526003602081905260409091200154600160a01b900460ff1615801561100257506000818152600360205260409020600101548210155b801561101e575060008181526003602052604090206001015442105b15611031578261102d81611afd565b9350505b8061103b81611afd565b915050610fbd565b5060008267ffffffffffffffff81111561105f5761105f611586565b6040519080825280602002602001820160405280156110bf57816020015b6040805160c08101825260008082526020808301829052928201819052606082018190526080820181905260a0820152825260001990920191018161107d5790505b5090506000805b6006548110156111d35760008181526003602081905260409091200154600160a01b900460ff1615801561110b57506000818152600360205260409020600101548410155b8015611127575060008181526003602052604090206001015442105b156111c157600081815260036020818152604092839020835160c08101855281546001600160a01b039081168252600183015493820193909352600282015494810194909452918201549081166060840152600160a01b900460ff16151560808301526004015460a082015283518490849081106111a7576111a7611ae7565b602002602001018190525081806111bd90611afd565b9250505b806111cb81611afd565b9150506110c6565b509095945050505050565b6001600160a01b0381166000908152600460209081526040808320805482518185028101850190935280835260609492939192909184015b8282101561139357838290600052602060002090600502016040518060a00160405290816000820180546112499061189d565b80601f01602080910402602001604051908101604052809291908181526020018280546112759061189d565b80156112c25780601f10611297576101008083540402835291602001916112c2565b820191906000526020600020905b8154815290600101906020018083116112a557829003601f168201915b50505091835250506001820154602082015260028201546040820152600382015460ff16151560608201526004820180546080909201916113029061189d565b80601f016020809104026020016040519081016040528092919081815260200182805461132e9061189d565b801561137b5780601f106113505761010080835404028352916020019161137b565b820191906000526020600020905b81548152906001019060200180831161135e57829003601f168201915b50505050508152505081526020019060010190611216565b505050509050919050565b6113a6611405565b6001600160a01b03166000908152600560205260409020805460ff19169055565b6113cf611405565b6001600160a01b0381166113f957604051631e4fbdf760e01b81526000600482015260240161065a565b61140281611432565b50565b6000546001600160a01b03163314610a215760405163118cdaa760e01b815233600482015260240161065a565b600080546001600160a01b038381166001600160a01b0319831681178455604051919092169283917f8be0079c531659141344cd1fd0a4f28419497f9722a3daafe3b4186f6b6457e09190a35050565b80356001600160a01b038116811461149957600080fd5b919050565b600080604083850312156114b157600080fd5b6114ba83611482565b946020939093013593505050565b6000815180845260005b818110156114ee576020818501810151868301820152016114d2565b506000602082860101526020601f19601f83011685010191505092915050565b60a08152600061152160a08301886114c8565b8660208401528560408401528415156060840152828103608084015261154781856114c8565b98975050505050505050565b60008060006060848603121561156857600080fd5b61157184611482565b95602085013595506040909401359392505050565b634e487b7160e01b600052604160045260246000fd5b600082601f8301126115ad57600080fd5b813567ffffffffffffffff808211156115c8576115c8611586565b604051601f8301601f19908116603f011681019082821181831017156115f0576115f0611586565b8160405283815286602085880101111561160957600080fd5b836020870160208301376000602085830101528094505050505092915050565b6000806000806080858703121561163f57600080fd5b61164885611482565b9350602085013567ffffffffffffffff8082111561166557600080fd5b6116718883890161159c565b945060408701359350606087013591508082111561168e57600080fd5b5061169b8782880161159c565b91505092959194509250565b6000602082840312156116b957600080fd5b6116c282611482565b9392505050565b600080600080600060a086880312156116e157600080fd5b6116ea86611482565b9450602086013593506040860135925061170660608701611482565b949793965091946080013592915050565b6000806040838503121561172a57600080fd5b61173383611482565b91506020830135801515811461174857600080fd5b809150509250929050565b60006020828403121561176557600080fd5b5035919050565b602080825282518282018190526000919060409081850190868401855b828110156117e757815180516001600160a01b039081168652878201518887015286820151878701526060808301519091169086015260808082015115159086015260a0908101519085015260c09093019290850190600101611789565b5091979650505050505050565b60006020808301818452808551808352604092508286019150828160051b87010184880160005b8381101561188f57603f19898403018552815160a08151818652611841828701826114c8565b91505088820151898601528782015188860152606080830151151581870152506080808301519250858203818701525061187b81836114c8565b96890196945050509086019060010161181b565b509098975050505050505050565b600181811c908216806118b157607f821691505b6020821081036118d157634e487b7160e01b600052602260045260246000fd5b50919050565b60208082526017908201527f4e6f7420617574686f72697a656420616e616c797a6572000000000000000000604082015260600190565b602080825260169082015275496e76616c69642077616c6c6574206164647265737360501b604082015260600190565b60208082526015908201527415d85b1b195d081b9bdd081c9959da5cdd195c9959605a1b604082015260600190565b601f8211156119b757600081815260208120601f850160051c810160208610156119945750805b601f850160051c820191505b818110156119b3578281556001016119a0565b5050505b505050565b815167ffffffffffffffff8111156119d6576119d6611586565b6119ea816119e4845461189d565b8461196d565b602080601f831160018114611a1f5760008415611a075750858301515b600019600386901b1c1916600185901b1785556119b3565b600085815260208120601f198616915b82811015611a4e57888601518255948401946001909101908401611a2f565b5085821015611a6c5787850151600019600388901b60f8161c191681555b5050505050600190811b01905550565b634e487b7160e01b600052601160045260246000fd5b8082028115828204841417611aa957611aa9611a7c565b92915050565b80820180821115611aa957611aa9611a7c565b606081526000611ad560608301866114c8565b60208301949094525060400152919050565b634e487b7160e01b600052603260045260246000fd5b600060018201611b0f57611b0f611a7c565b506001019056fea264697066735822122045fec7625a8cbe1e06664df2cd31efb5753b41275ccf3681047a1f394351ca0b64736f6c63430008140033",
  "linkReferences": {},
  "deployedLinkReferences": {}
}